:020000040800F2
:10000000C01A0020C1010008695E0008E95000081C
:10001000E55D0008CD0A00081B8C00080000000008
:1000200000000000000000000000000083690008DC
:10003000130F000800000000575F0008E56B000880
:10004000DB010008DB010008DB010008DB01000820
:10005000DB010008DB010008150F0008DB010008C8
:100060001F0F0008DB010008DB010008DB010008AE
:10007000990D0008DB010008A90D0008DB0100084C
:10008000B90D0008C90D0008DB010008E10A0008ED
:10009000D10A0008DB010008DB010008DB010008D1
:1000A000DB010008DB010008DB010008DB010008C0
:1000B000196D0008516D0008B96D0008DB010008DA
:1000C000DB010008DB010008DB010008DB010008A0
:1000D000DB010008D1790008DB010008DB01000822
:1000E000DB010008DB010008DB010008DB01000880
:1000F000DB010008DB010008DB010008DB01000870
:10010000DB010008DB010008C96D0008DB01000805
:10011000DB010008DB010008DB010008DB0100084F
:10012000DB010008D90D0008E90D0008DB0100081B
:10013000DB010008DB010008DB010008010B0008FF
:10014000F10A0008DB010008DB010008A55E0008D9
:10015000DB010008DB010008DB010008DB0100080F
:10016000DB010008DB010008DB010008DB010008FF
:10017000DB010008DB010008DB01000800000000D3
:10018000DB010008DB010008DB010008DB010008DF
:10019000DB010008DB010008DB010008DB010008CF
:1001A0000000000000000000DB010008DFF80CD0B8
:1001B00000F036FB00480047AD990008C01A002047
:1001C0000648804706480047FEE7FEE7FEE7FEE7F1
:1001D000FEE7FEE7FEE7FEE7FEE7FEE7B56C000898
:1001E000AD01000840EA01039B0703D009E008C9FC
:1001F000121F08C0042AFAD203E011F8013B00F8EC
:10020000013B521EF9D27047D2B201E000F8012B37
:10021000491EFBD270470022F6E710B513460A4686
:1002200004461946FFF7F0FF204610BD2DE9FE4FAA
:10023000804681EA0300C00F0C46009021F0004187
:1002400023F00045B8EB0200A94105D24046214603
:1002500090461C460B46024623F00040104347D010
:10026000270DC7F30A00C3F30A510290401A019008
:1002700040286BDAC3F3130040F4801B00989246C9
:1002800020B10023D2EB030A63EB0B0B0198594614
:10029000C0F14002504600F0BDF906460D465046FA
:1002A0005946019A00F0C5F910EB0800614100249D
:1002B00087EA115284EAE7731A4340D0009A62B386
:1002C000019A012A4FEA075215DC001B61EB02017B
:1002D0004FF0004202EA0752CDE90042001C41F50E
:1002E000801132462B4600F0FCF903B0BDE8F08FD8
:1002F00040462146F9E7001B61EB0201001C41F575
:10030000801300185B412018A2F5001747EB03018A
:1003100040EAD570B6196D4111E06D084FEA360616
:1003200045EAC0754FEA0752001B61EB0201001C51
:1003300041F5801149084FEA300000195141324619
:100340002B4603B0BDE8F04F00F0BCB90098012285
:1003500040000023D0EB020263EBE07300982146DB
:100360004FEAE074B8EB000061EB0401E9E783F0C9
:1003700000435BE781F0004158E72DE9FE4F81EA39
:10038000030404F0004421F0004100944FF0000BFE
:1003900023F0004350EA01045ED052EA03045BD02C
:1003A000C3F30A54C1F30A552C44A4F2F334019464
:1003B000A0FB0254C1F3130141F48011C3F31303F2
:1003C00043F4801301FB024400FB034E840A970AA6
:1003D00044EA815447EA8357A4FB076802958D0AD3
:1003E00005FB07854FEA932C04FB0C542705029D5F
:1003F0004FEA065847EA1637B5EB08056EEB070CCF
:10040000870E920E47EA811742EA8312A7FB020188
:10041000B6EB0B0164EB00042B0D43EA0C335E18C2
:1004200044EB1C50DA465146E7FB0201C5F31304C6
:100430004FEA0B3343EA14534FEA0432019C43EA78
:100440000603A4F10C040294009CCDE900B400F072
:1004500048F903B0BDE8F08F00200146F9E72DE927
:10046000F04D81EA030404F0004B21F000451446EE
:100470004FF0000A23F0004150EA050220D054EA70
:1004800001021DD0C5F30A570246C5F31303C1F399
:100490001300C1F30A5640F4801543F48013A7EB10
:1004A0000608101BD64608F2FD3873EB050002D390
:1004B00008F1010801E092185B41B8F1000F03DA7E
:1004C00000200146BDE8F08D00204FF48011064663
:1004D00084460EE0171B73EB050705D3121B63EB75
:1004E000050306434CEA010C49084FEA3000921814
:1004F0005B4150EA0107EDD152EA030012D082EAD3
:10050000040083EA0501084305D0101BAB4106D265
:100510000122002306E000224FF0004302E06FF0CA
:10052000010253101AEB06004CEB085110EB0A00C5
:1005300041EB0B01BDE8F04D00F0C4B80EB540F240
:10054000334102910021CDE900110A460B4600F02B
:10055000C8F803B000BD00F0004230F000400AD0FF
:10056000C10D01F56071C0F3160042EA0151C208E5
:1005700040071143704700200146704730B5041E04
:1005800071F1000404DB4FF00044404264EB0101D0
:10059000141E73F1000405DB1C464FF00043524269
:1005A00063EB04038B4208BF824230BD30B5041EAA
:1005B00071F1000404DB4FF00044404264EB0101A0
:1005C000141E73F1000405DB1C464FF00043524239
:1005D00063EB0403994208BF904230BD01F0004331
:1005E00030B421F0004150EA010206D00A0DA2F514
:1005F0006072C1F31301002A02DC30BC0020704796
:10060000440F44EAC104C100E01830BC00EBC25002
:1006100000F021B8202A04DB203A00FA02F1002081
:1006200070479140C2F1200320FA03F31943904030
:100630007047202A06DBCB17203A41FA02F043EA42
:10064000E07306E041FA02F3D040C2F1200291408B
:100650000843194670470029A8BF7047401C49004D
:1006600008BF20F00100704710B4B0FA80FC00FA17
:100670000CF050EA010404BF10BC704749B1CCF142
:10068000200421FA04F411FA0CF118BF01212143CE
:100690000843A3EB0C01CB1D4FEA00614FEA102089
:1006A00042BF002010BC704700EBC350104400292B
:1006B000A4BF10BC7047401C490008BF20F00100D7
:1006C00010BC704710B5141E73F1000408DA401C0A
:1006D00041F1000192185B411A4301D120F0010061
:1006E00010BD2DE9F04D92469B4611B1B1FA81F251
:1006F00002E0B0FA80F220329046FFF78BFF04460A
:100700000F4640EA0A0041EA0B0153465A460843A5
:1007100013D0114653EA010019D0C8F140025046E7
:1007200000F090F805460E46504659464246FFF7FF
:1007300071FF084305D0012004E020463946BDE89A
:10074000F08D0020054346EAE0762C4337430A98B3
:100750006305E40AA0EB08000022FD0A44EA4754BE
:100760000A3002D500200146E9E701051019694168
:10077000DDE9084500196941BDE8F04DA2E72DE922
:10078000F04D00231A461B1A8A4103DB0020014664
:10079000BDE8F08DC1F30A52C1F3130141F4801595
:1007A0004FF0000BD10702D100186D41521E0027F7
:1007B000044640F2FF11384601EB620A3E4680468D
:1007C000024600204FF4801100F03CF8C21971413C
:1007D000BB1846EB0100B4EB030C75EB000C04D323
:1007E000E41A65EB000517460E46241908F10100CE
:1007F0006D4180463428E3DDF91946EB0600091BFC
:10080000A84103D24FF0FF32134601E00022134605
:100810001BEB070046EB0A51BDE8F04DFFF752BF56
:10082000064C074D06E0E06840F0010394E807003D
:1008300098471034AC42F6D3FFF7BCFCF09E00089A
:10084000109F0008202A04DB203A21FA02F0002140
:10085000704721FA02F3D040C2F1200291400843D0
:100860001946704730B58C1810F8012B12F00F03A1
:1008700001D110F8013B120906D110F8012B03E059
:1008800010F8015B01F8015B5B1EF9D101E001F892
:10089000013B521EFBD1A142E6D3002030BDD0ED7A
:1008A000000AF4EEC00AF1EE10FA01DD80ED000A54
:1008B000D0ED000AB1EE401AF4EEC10AF1EE10FAE2
:1008C00003D2F1EE400AC0ED000A704710B52DEDDD
:1008D0000C8B82B001200023704A111F0090081F6A
:1008E00000F070FE1E216E4800F084FDB0EE403A2C
:1008F0001E216C4800F07EFD33EE003A1E216A484E
:1009000000F078FD33EE000A10EE104A2046FFF7A3
:1009100022FE41EC190BB0EE490AF0EE690A08F02C
:1009200035FCB0EE408AF0EE608A51EC180BFFF710
:1009300055FE5E4908601E21594800F061FB5C4885
:1009400080ED000A1E21574800F05AFB584880ED00
:10095000010A1E21544800F053FB554880ED020A5D
:100960004E48243890ED030AD0ED100AB0EE001A7C
:1009700070EEC10AB4EEE00AF1EE10FA7DDD4D48EA
:100980000078002879D1494890ED000ADFED4A0A45
:10099000B4EEE00AF1EE10FA5CD2454890ED020A9E
:1009A00010EE101A0846FFF7D6FD41EC1B0BB0EE17
:1009B0004B0AF0EE6B0A08F0DFFBB0EE409AF0EE67
:1009C000609A3B4890ED010A10EE101A0846FFF7B6
:1009D000C2FD41EC1D0BB0EE4D0AF0EE6D0A08F0C1
:1009E000CBFBB0EE40BAF0EE60BA314890ED000AB1
:1009F00010EE101A0846FFF7AEFD41EC1D0BB0EEED
:100A00004D0AF0EE6D0A08F0B7FBB0EE40CAF0EE0A
:100A100060CA53EC1B2B51EC1C0BFFF707FC41EC9D
:100A20001A0B53EC192BFFF701FC41EC180B9FED4F
:100A3000230B53EC102BFFF7A1FD0BD221480088AC
:100A40004FF6FF71884208DA1E480088401C1D4995
:100A5000088002E000201B4908801A480088B0F591
:100A60007A6F16DD124890ED000A174880ED040AEF
:100A70000F4890ED010A144800E00AE080ED050AF5
:100A80000B4890ED020A104880ED060A0120094942
:100A9000087002B0BDEC0C8B10BD0000A006002059
:100AA0002C080020A40800201C0900209801002028
:100AB00094090020B2010020000034420000000030
:100AC00000C05240960100205407002000BFFEE7FE
:100AD00010B5024800F09EFE10BD0000A40A0020E0
:100AE00010B5024800F096FE10BD0000A40A0020D8
:100AF00010B5024800F08EFE10BD0000E40A002090
:100B000010B5024800F086FE10BD0000E40A002087
:100B100000B58BB0002006900790012008900020BF
:100B2000019002900390049005900E200A900120FD
:100B3000099001A90A4800F0D5FD0E20069001A9F0
:100B4000084800F0CFFD0848054908630748486396
:100B5000074804490863074848630BB000BD00001C
:100B6000A40A0020E40A0020240B0020400B0020EF
:100B7000640B0020800B002070B504460D462068F1
:100B800000F5D87000EB0510006800F00400616B00
:100B90008860606B806860B9206800F5D87000EBF1
:100BA0000510006840F2FF7101EA5050616B086067
:100BB0000BE0206800F5D87000EB051000686FF0BE
:100BC000604101EAD000616B4860206800F5D87090
:100BD00000EB0510006800F00200616BC86020683F
:100BE00000F5D87000EB0510406800F00F00616B55
:100BF0000861606B0562206800F5D87000EB051095
:100C00004068C0F30720616BC861206800F5D870A8
:100C100000EB05108068616B0875206800F5D870DE
:100C200000EB05108068010A606B4175206800F5D3
:100C3000D87000EB05108068010C606B817520682E
:100C400000F5D87000EB05108068000E616BC87568
:100C5000206800F5D87000EB0510C068C1B2606B69
:100C60000176206800F5D87000EB0510C068010A15
:100C7000606B4176206800F5D87000EB0510C06805
:100C8000010C606B8176206800F5D87000EB0510D0
:100C9000C068000E616BC8764DB920202168C8601D
:100CA0002068406920F002002168486108E02020A7
:100CB000216808612068406920F0100021684861BF
:100CC00094F8380022281DD12068406920F48070F3
:100CD000216848612068406920F4007021684861FB
:100CE0002068406920F4806021684861206840697C
:100CF00020F40060216848612068406920F40040C9
:100D00002168486194F83800322803D1122084F811
:100D1000380002E0012084F83800204601F032F863
:100D2000002070BD10B504462068406920F0010025
:100D30002168486194F8380012281DD12068406964
:100D400020F48070216848612068406920F40070B8
:100D5000216848612068406920F48060216848610A
:100D60002068406920F4006021684861206840697B
:100D700020F400402168486194F83800322803D1FB
:100D8000222084F8380002E0012084F83800204650
:100D900001F0D8F9002010BD10B5024801F018FA92
:100DA00010BD0000640C002010B5024801F010FADC
:100DB00010BD0000E40D002010B5024801F008FA53
:100DC00010BD0000040C002010B5024801F000FA2C
:100DD00010BD0000440E002010B5024801F0F8F9E3
:100DE00010BD0000240D002010B5024801F0F0F9FC
:100DF00010BD0000A40B002001460878103818230D
:100E0000B0FBF3F20848805CC865032A05D908687E
:100E10006FF30900001D886503E008686FF309009F
:100E20008865886D70470000809B0008014600209F
:100E30008A6A8B6903BB32B1012A0CD0022A10D016
:100E4000032A17D115E0CB6A03F08073B3F1807FDA
:100E500000D101200FE0CB6AB3F1C07F00D10120A7
:100E600009E0CB6A03F08073B3F1807F00D10120E9
:100E700001E000E000BF35E08B69B3F5005F1BD1F6
:100E800032B1012A06D0022A0CD0032A12D10BE07B
:100E9000012010E0CB6A03F08073B3F1807F00D1B2
:100EA000012008E0012006E0CB6AB3F1C07F00D149
:100EB000012000E000BF15E032B1012A05D0022A6E
:100EC00004D0032A0CD103E000BF00BF012008E0DA
:100ED000CB6A03F08073B3F1807F00D1012000E082
:100EE00000BF00BF704730B50468246824F4802434
:100EF00005682C60046863608468402C04D1046831
:100F0000A2600468E16003E00468A1600468E26034
:100F100030BD704710B5012001F05AFB10BD10B56F
:100F2000042001F055FB10BDAFF20301016006493A
:100F30004160002180F8241080F825109FED030AFD
:100F400080ED0A0A70470000391000080000000018
:100F500000BFFEE70FB410B52DED068B179CBDF852
:100F60002600C8B1BDF82600FFF7E8FA41EC1A0BDD
:100F70009FED1E0B53EC102BFFF7F9F941EC190B09
:100F80009FED1C0B53EC102BFFF769FA41EC180B8B
:100F9000FFF724FB206003E09FED180A84ED000AB0
:100FA000BDF82400C8B1BDF82400FFF7C7FA41EC32
:100FB0001A0B9FED0E0B53EC102BFFF7D8F941ECF9
:100FC000190B9FED0C0B53EC102BFFF748FA41EC7B
:100FD000180BFFF703FBE06003E09FED080A84EDC8
:100FE000030ABDEC068B10BC5DF814FB000000008A
:100FF00000009040000000000080764000000000EB
:1010000002469FED0C1AF0EE410A002009E002EBC7
:10101000800393ED001A31EE201AF0EE410A431CD2
:1010200098B28842F3DB01EE101AB8EE411A80EE56
:10103000810A70470000000070B52DED0A8B044650
:101040000D4694F8240020BB14F8250F401C207096
:1010500014F82509322803DD012084F8240011E06A
:10106000686B407D696B097D40EA0120E084E08C7B
:1010700000EE100AB8EE400ADFED700A80EE201A8A
:1010800084ED0D1AE08C20839FED6D0A84ED0C0A2F
:10109000D1E0686B407D696B097D40EA0120E08208
:1010A000686BC17D807D41EA002000B200EE100A2D
:1010B000B8EEC00A84ED030A94ED030A84ED020A37
:1010C000686B417E007E41EA002000B200EE100A0B
:1010D000B8EEC00A84ED040A686B807E2075E08A51
:1010E000218B401AB0F5805F08DD94ED0A0AF7EE17
:1010F000000A30EE600A84ED0A0A0DE0E08A218BD6
:10110000401A10F5805F07DA94ED0A0AF7EE000A3C
:1011100030EE200A84ED0A0AE08A00EE100AF8EEAA
:10112000400A9FED461A80EE810AD4ED0A0A30EE9D
:10113000200AD4ED0D0A30EE600A84ED0C0AE08A34
:1011400000EE100AB8EE400AD4ED0A0A9FED3B1AF1
:1011500000EE810ABDEEC00A84ED0B0AE08A20830E
:1011600094ED020A10EE101A0846FFF7F4F941EC6C
:101170001A0B94ED040A10EE101A0846FFF7EBF96B
:1011800041EC1C0B9FED2F0B53EC102BFFF7F5F8E8
:1011900041EC1B0B53EC1A2BFFF7EFF841EC190B4A
:1011A0009FED2A0B53EC102BFFF700FA1ED294EDA3
:1011B000020A10EE101A0846FFF7CDF941EC190BA0
:1011C00094ED040A10EE101A0846FFF7C4F941EC3A
:1011D0001B0B9FED1C0B53EC102BFFF7CEF841ECD3
:1011E0001A0B53EC192BFFF7C8F81FE094ED020A15
:1011F00010EE101A0846FFF7AEF941EC190B94ED0A
:10120000040AB1EE400A10EE101A0846FFF7A3F9DF
:1012100041EC1B0B9FED0B0B53EC102BFFF7ADF8C4
:1012200041EC1A0B53EC192BFFF7A7F841EC180B04
:10123000FFF7D4F9A063BDEC0A8B70BD0000004637
:10124000000000001623AFAA0E87D03E0000000069
:1012500000000000F0EE400A00EE100AB8EE401A5E
:1012600080EE810A044991ED001A30EE010A81ED09
:10127000000A91ED000A704740010020F0EE400A9C
:1012800000EE100AB8EE401A80EE810A044991ED92
:10129000001A30EE010A81ED000A91ED000A704754
:1012A0003C01002000B53E4890ED050ADFED3D0A07
:1012B00080EE201A3C4880ED051AD0ED050AB0EE0C
:1012C000600A4FF47A70FFF7C5FF374880ED100AC7
:1012D00036484079012813D1354890F82F0001286D
:1012E0001BD1334890F82D00012804D001212E484D
:1012F00080F8351011E000212B4880F835100CE003
:101300002A484079022804D10121274880F8351065
:1013100003E00021244880F83510234890F8350078
:10132000D0B90021204880F8351090F83400012809
:1013300008D11D4890ED0E0AD0ED040A30EE600A87
:1013400080ED0F0A184890ED0E0AD0ED0F0A30EE2E
:10135000600A80ED040A18E00121134880F8351076
:1013600090F8340040B9104890ED100AD0ED040A0E
:1013700030EE600A80ED110A0B4890ED100AD0EDB6
:10138000110A30EE600A80ED040A074890ED040A65
:1013900080ED040A90F8351080F8341000BD00008C
:1013A0007C0600206F128341A40000200C00002066
:1013B000C809002010B58CB004460D4805F02DF981
:1013C000231D0B48001D07C805F00BFB04F134007A
:1013D0000B90A088ADF828002822054910316846F6
:1013E000FEF700FF02480FC8FFF7B4FD0CB010BDB8
:1013F000C80900200246DFED181AB0EE611A00207D
:1014000009E002EB8003D3ED001A71EE811AB0EE11
:10141000611A431C98B28842F3DB01EE901AF8EE91
:10142000611AC1EE210A002013E002EB8003D3ED24
:10143000001A71EEE01A21EEA12A01EE901AF8EEE0
:10144000612AC2EE221A71EE801AB0EE610A431CC4
:1014500098B28842E9DB70470000000000B53E48C2
:1014600090ED060ADFED3D0A80EE201A3C4880ED43
:10147000161AD0ED160AB0EE600A4FF47A70FFF734
:10148000FDFE374880ED210A36484079012813D106
:10149000354890F82F0001281BD1334890F82D00D3
:1014A000012804D001212E4880F8791011E0002194
:1014B0002B4880F879100CE02A484079022804D1A2
:1014C0000121274880F8791003E00021244880F8A2
:1014D0007910234890F87900D0B90021204880F88D
:1014E000791090F87800012808D11D4890ED1F0A66
:1014F000D0ED150A30EE600A80ED200A184890ED14
:101500001F0AD0ED200A30EE600A80ED150A18E0BF
:101510000121134880F8791090F8780040B91048FC
:1015200090ED210AD0ED150A30EE600A80ED220A16
:101530000B4890ED210AD0ED220A30EE600A80EDD2
:10154000150A074890ED150A80ED150A90F87910F4
:1015500080F8781000BD00007C0600206F128341E7
:10156000A40000200C000020C809002030B503466C
:1015700013B94FF6FF7030BD09E013F8014B82EA52
:101580000400C0B2054D35F8100080EA2222081E82
:10159000A1F10101F1D11046EDE700009E9C000889
:1015A00030B5034605E013F8010B80EA0204044855
:1015B000025D081EA1F10101F5D1104630BD000009
:1015C0009D9B000870B5049C012C26D1404D2D88B0
:1015D0006D1C3F4E358035462D881E2D01D10025CE
:1015E000358090ED000A3B4D394E368805EB860577
:1015F00085ED000A91ED000A374D354E368805EB32
:10160000860585ED000A92ED000A344D304E36888D
:1016100005EB860585ED000A58E01E2B0CDB9FEDDF
:10162000300A80ED000A9FED2E0A81ED000A9FED41
:101630002C0A82ED000A49E0254D2D88AB421EDAC6
:10164000234D2D88ED1A234E06EB850595ED000AF6
:1016500080ED000A1E4D2D88ED1A1F4E06EB850504
:1016600095ED000A81ED000A194D2D88ED1A1B4EEB
:1016700006EB850595ED000A82ED000A26E0C3F130
:101680001E05134E368835446D1E124E06EB850539
:1016900095ED000A80ED000AC3F11E050C4E368858
:1016A00035446D1E0C4E06EB850595ED000A81ED67
:1016B000000AC3F11E05064E368835446D1E074EDE
:1016C00006EB850595ED000A82ED000A70BD00006D
:1016D000B00100202C080020A40800201C090020D4
:1016E0000000000030B5034600220C7D012000FA06
:1016F00004F24648006840F00100444C2060204657
:10170000006820F47C502060204600684C6A40EA63
:1017100004203E4C20603D481C30006890433B4C08
:101720001C342060C869D8B938480C300068904330
:10173000364C0C342060888880B28C8940EA04449E
:10174000324840304D6940F83540088880B20C89F5
:1017500040EA04442D4840304D6900EBC500446028
:10176000C86901281BD129480C3000681043274C58
:101770000C342060888880B20C8840EA04442348F6
:1017800040304D6940F83540888980B20C8940EA84
:1017900004441E4840304D6900EBC5004460886930
:1017A00038B91A48001D00689043184C241D206069
:1017B00006E01648001D00681043144C241D2060EC
:1017C000086930B911481430006890430F4C143444
:1017D00020600869012806D10C48143000681043C5
:1017E0000A4C14342060086A012806D107481C30CE
:1017F00000681043054C1C3420600448006820F049
:101800000100024C2060002030BD00000066004056
:10181000704700002DE9F04104460025002600270E
:101820002068406900F0010018B3206880686949A9
:101830000840884201D1012000E0002005462068D0
:10184000806865490840884201D1012000E00020FD
:1018500006462068806861490840884201D101201D
:1018600000E0002007460DB906B917B12046FFF782
:1018700059FA2068C06800F0030520684069C0F389
:10188000400625B11EB100212046FFF775F92068FA
:10189000006900F0030520684069C0F3001625B117
:1018A0001EB101212046FFF767F92068806900F02A
:1018B000010520684069C0F3002620684069C0F334
:1018C000C0372DB126B11FB1E06B40F00100E063DD
:1018D00020688069C0F3400520684069C0F3402655
:1018E00020684069C0F3C0372DB126B11FB1E06B4D
:1018F00040F00200E06320688069C0F38005206842
:101900004069C0F3802620684069C0F3C0372DB11C
:1019100026B11FB1E06B40F00400E06320688069ED
:1019200000F0700008B9012000E0002005462068A2
:101930004069C0F3C02620684069C0F3C03795BB3A
:101940008EB387B32068806900F07005402D1BD0EE
:1019500006DC102D09D0202D0CD0302D24D10EE026
:10196000502D16D0602D1FD118E0E06B40F008001C
:10197000E0631AE0E06B40F01000E06315E0E06B1C
:1019800040F02000E06310E0E06B40F04000E063D6
:101990000BE0E06B40F08000E06306E0E06B40F4B9
:1019A0008070E06301E007E000BF00BF206880694D
:1019B00020F0700021688861E06B40B1042021684C
:1019C0004860012084F838002046FFF721FFBDE879
:1019D000F081000003000004000300080000031071
:1019E00070B50446032600250CB9012070BD94F89B
:1019F000380028B9002084F83900204600F0D0F8DB
:101A0000022084F838002068006820F00200216875
:101A100008602068006840F001002168086000F05C
:101A2000F9FE05460EE000F0F5FE401B0A2809D934
:101A3000032084F8380000BF002084F8390000BF7C
:101A40000320D3E72068406800F001000028EAD0B6
:101A50002068406800F0010008B9002692E0A06903
:101A6000012806D12068006840F0800021680860E5
:101A700005E02068006820F0800021680860E069C7
:101A8000012806D12068006840F040002168086005
:101A900005E02068006820F0400021680860206AA6
:101AA000012806D12068006840F020002168086005
:101AB00005E02068006820F0200021680860606A66
:101AC000012806D12068006840F0100021680860F5
:101AD00005E02068006820F0100021680860A06A16
:101AE000012806D12068006840F0080021680860DD
:101AF00005E02068006820F0080021680860E06ABE
:101B0000012806D12068006840F0040021680860C0
:101B100005E02068006820F0040021680860D4E92E
:101B20000201084321690843616908436168491E4D
:101B300008432168C8612068006820F0010021681E
:101B4000086000F067FE05460EE000F063FE401BF3
:101B50000A2809D9032084F8380000BF002084F83F
:101B6000390000BF032041E72068406800F0010011
:101B70000028EAD12068406800F0010008B1002682
:101B800000E00126012E06D10020E063012084F848
:101B9000380000202AE7042084F83800012025E7D7
:101BA00010B586B0044645492068884237D144487C
:101BB0000068401C424908600846006801280FD1AF
:101BC00000BF002000903F48006840F000703D4991
:101BD00008600846006800F00070009000BF00BF79
:101BE0000320019002200290002003900320049023
:101BF0000920059001A9344800F0F8FC00220121D9
:101C0000132000F0CCFE132000F0BCFE00220121C6
:101C1000142000F0C4FE142000F0B4FE4BE02B4969
:101C20002068884247D100BF002000902548006806
:101C300040F08060234908600846006800F080603A
:101C4000009000BF00BF1E480068401C1C4908608F
:101C50000846006801280FD100BF002000901948F5
:101C6000006840F00070174908600846006800F0FE
:101C70000070009000BF00BF4FF440500190022060
:101C8000029000200390032004900920059001A9F0
:101C90000F4800F0ABFC012211463F2000F07FFE10
:101CA0003F2000F06FFE01221146402000F077FE39
:101CB000402000F067FE06B010BD00000064004048
:101CC000B801002040380240000C0240006800408B
:101CD0000004024010B50246002392F83830012B70
:101CE00001D0122B49D100BF92F83900012801D14F
:101CF000022010BD012082F8390000BF92F83800A0
:101D0000122803D1322082F8380002E0222082F823
:101D100038000020D0631068406940F48070146877
:101D200060611068406940F4007014686061106878
:101D3000406940F48060146860611068406940F454
:101D40000060146860611068406940F400401468E5
:101D5000606100BF002082F8390000BF31B910680F
:101D6000406940F002001468606108E01068406952
:101D700040F010001468606101E00220B9E7002023
:101D8000B7E7000010B50446494884426AD1606B49
:101D90000068A0F20120082863D2DFE800F05E624C
:101DA0006061042E5F23434821468268001D9047EE
:101DB000404890F82800012813D13E4890ED0C0AC5
:101DC000B8EEC00ADFED3C0A70EE600A9FED3B1AE8
:101DD00080EE810ADFED3A0A20EE200A394880EDD4
:101DE0001F0A3EE0384821468268001D90479FED5B
:101DF000370A374880ED000A33E0364821468268CA
:101E0000001D9047334890F82800012824D131481C
:101E100090ED0C0AB8EEC00ADFED2F0A30EE600A32
:101E20009FED261AC0EE010A9FED250A20EE800ADA
:101E3000244880ED0E0A90ED0E0ADFED280AB4EE7C
:101E4000E00AF1EE10FA07D290ED0E0ADFED1C0A5F
:101E500030EE200A80ED0E0A03E002E001E000BF50
:101E600000BF00BF1E48844210D1606B0068A0F222
:101E7000012030B1022806D0032805D0062804D15D
:101E800000E000BF00BF00BF00BF00BF08480068FF
:101E9000406940F00200064909684861104800683E
:101EA000406940F002000E490968486110BD000019
:101EB000A40A0020FC040020005057450000004602
:101EC0000000B443A4000020FC010020000000003A
:101ED0007C0100207C03002000E0F645000048C3A0
:101EE000E40A00202DE9F04104460E4605250027AE
:101EF0002068806800F08060B0F1806F0DD02068AD
:101F0000806800F00060B0F1006F06D02068806843
:101F100000F08050B0F1805F7ED100BF94F83900AE
:101F2000012802D10220BDE8F081012084F83900A7
:101F300000BF94F83800222803D1322084F83800FA
:101F400002E0122084F838002068806800F0806089
:101F5000B0F1806F01D1002509E02068806800F0B1
:101F60000060B0F1006F01D1012500E0022520687A
:101F700000F5C07000EB0510006800F0010120685A
:101F800000F5C07000EB05100160206B806898B907
:101F9000206800F5C07000EB05100068216BC9686F
:101FA000226B128841EA42510843216801F5C07151
:101FB00001EB0511086015E0206800F5C07000EB2A
:101FC00005100068216B8968226B526841EAC201E2
:101FD000226BD26811430843216801F5C07101EBFF
:101FE00005110860206B007C00F00F00216B086178
:101FF000206800F5C07000EB0510406820F00F016C
:10200000206800F5C07000EB05104160206800F505
:10201000C07000EB051000E088E04068216B0969A2
:102020000843216801F5C07101EB05114860206B80
:10203000C07D0106206B807D41EA0041206B407D20
:1020400041EA0020216B097D0843216801F5C07138
:1020500001EB05118860206BC07E0106206B807E3D
:1020600041EA0041206B407E41EA0020216B097E5D
:102070000843216801F5C07101EB0511C8602068B3
:1020800000F5C07000EB0510006840F00101206809
:1020900000F5C07000EB0510016000F0BBFB0746C7
:1020A00011E0701C78B126B100F0B4FBC01BB04247
:1020B00009D9032084F8380000BF002084F83900D3
:1020C00000BF03202FE74DB9206880681A490840F7
:1020D000884201D1012016E0002014E0012D09D131
:1020E0002068806815490840884201D101200AE033
:1020F000002008E02068806811490840884201D12A
:10210000012000E000200028CBD094F838003228CD
:1021100003D1222084F8380002E0012084F838003E
:1021200000BF002084F8390000BFFCE6042084F8DA
:1021300038000120F7E60000030000040003000857
:10214000000003107047014691F83500022803D0C3
:102150008020486501207047052081F83500086817
:10216000006820F001000A6810600020F3E770B5F5
:1021700004460CB9012070BD94F83500022800D146
:10218000F9E72068006820F001002168086000205D
:102190002168086021684860216888602168C860FB
:1021A000216808612120216848612046FEF724FE4D
:1021B000054694F85C103F208840A86000206065C8
:1021C00084F8350000BF84F8340000BF00BFD2E7B8
:1021D000F8B50446002000908D4800684FF4165171
:1021E000B0FBF1F7A56D2E6894F85C1008208840CC
:1021F000304098B12068006800F0040070B1206899
:10220000006820F004002168086094F85C10082041
:102210008840A860606D40F00100606594F85C1033
:102220007C488840304068B12068406900F08000F8
:1022300040B194F85C1077488840A860606D40F029
:102240000200606594F85C107248C01C8840304001
:1022500070B12068006800F0020048B194F85C108A
:102260006C48C01C8840A860606D40F00400606548
:1022700094F85C1010208840304078B320680068E3
:1022800000F0080050B394F85C1010208840A8605B
:102290002068006800F4802080B12068006800F4A5
:1022A000002028B9206CC8B12046216C884715E071
:1022B000A06C98B12046A16C88470FE020680068A8
:1022C00000F4807028B92068006820F008002168B8
:1022D0000860206C10B12046216C884794F85C108F
:1022E000202088403040002865D02068006800F039
:1022F000100000285FD094F85C1020208840A8606F
:1023000094F83500052828D12068006820F01600D0
:10231000216808602068406920F0800021684861D9
:10232000206C08B9A06C28B12068006820F0080073
:102330002168086094F85C103F208840A86000BFC6
:10234000002084F8340000BF012084F83500206D9F
:1023500010B12046216D8847F8BD2068006800F460
:10236000802080B12068006800F4002028B9606CEB
:1023700010B12046616C88471DE0E06BD8B1204663
:10238000E16B884717E02068006800F4807068B946
:102390002068006820F010002168086000BF00205D
:1023A00084F8340000BF012084F83500E06B10B1E0
:1023B0002046E16B8847606D38B3606D00F0010026
:1023C000F0B1052084F835002068006820F0010095
:1023D0002168086000BF0098401C0090B84200D9F6
:1023E00005E02068006800F001000028F3D100BF7C
:1023F00000BF002084F8340000BF012084F83500BD
:10240000E06C10B12046E16C884700BFA4E70000F3
:1024100008000020010080002DE9F041044600255D
:1024200000F0F8F9074614B90120BDE8F081606AB0
:1024300000B100BF00BF002084F8340000BF0220BC
:1024400084F835002068006820F0010021680860E9
:102450000AE000F0DFF9C01B052805D920206065DF
:10246000032084F83500E0E72068006800F00100F0
:102470000028EED12068056820480540D4E9010114
:102480000843E16808432169084361690843A16979
:102490000843E1690843216A08430543606A042848
:1024A00003D1D4E90B010843054320680560206887
:1024B000456925F00705606A0543606A04280BD169
:1024C000A06A05432046FEF7B1FC28B140206065B4
:1024D000012084F83500A8E7206845612046FEF712
:1024E0008BFC064694F85C103F208840B0600020CA
:1024F0006065012084F83500002096E73F8010F0E9
:102500002DE9F04704460D4616461F464FF00008D9
:10251000D4F8589000BF94F83400012802D102206A
:10252000BDE8F087012084F8340000BF94F835003E
:1025300001282BD1022084F83500002060653B463D
:10254000324629462046FEF7CEFC94F85C103F2028
:102550008840C9F808002068006840F0160021682B
:1025600008602068406940F0800021684861206C64
:1025700028B12068006840F00800216808602068E1
:10258000006840F001002168086006E000BF0020FC
:1025900084F8340000BF4FF002084046C0E731B570
:1025A000002400F037F9044600BF00F033F9001BA7
:1025B00000998842F9D338BD012805D1034909881B
:1025C000491C024A118000E000BF704792010020C0
:1025D00010B5044604480068204020B10248046059
:1025E0002046FFF7E9FF10BD143C0140F8B5024654
:1025F0000B460025002400200021E6E0012606FA13
:1026000001F51E6806EA0504AC4273D15E68022E2D
:1026100002D05E68122E13D1CF0802F1200656F8C0
:1026200027004E07F70E0F26BE40B0434F07FF0EA0
:102630001E69BE403043CF0802F1200646F827004D
:1026400010684F000326BE40B0431E7906F0030613
:102650004F00BE40304310605E68012E08D05E68B7
:10266000022E05D05E68112E02D05E68122E13D1A4
:1026700090684F000326BE40B0434F00DE68BE4066
:1026800030439060506801268E40B0431E79C6F3F7
:1026900000168E4030435060D0684F000326BE4085
:1026A000B0434F009E68BE403043D0605E6806F085
:1026B0008056B6F1805FA8D100BF00260096454E37
:1026C000366846F48046434F3E603E46366806F420
:1026D0008046009600BF00BF3F4E8F0856F8270087
:1026E0008E07370F0F26BE40B0433C4EB24202D198
:1026F00000262EE068E03A4EB24201D1012628E0E1
:10270000384EB24201D1022623E0374EB24201D107
:1027100003261EE0354EB24201D1042619E0344EA4
:10272000B24201D1052614E0324EB24201D1062652
:102730000FE0314EB24201D107260AE02F4EB242DD
:1027400001D1082605E02E4EB24201D1092600E053
:102750000A268F073F0FBE4030431F4E8F0846F8B2
:102760002700284E3068A0435E6806F48036B6F530
:10277000803F00D12043234E3060361D3068A04397
:102780005E6806F40036B6F5003F00D120431D4ECA
:10279000361D3060361D3068A0435E6806F4801632
:1027A000B6F5801F00D12043164E08363060361D26
:1027B0003068A0435E6806F40016B6F5001F00D12D
:1027C0002043104E0C363060491C1029FFF416AF20
:1027D000F8BD0000443802400838014000000240C3
:1027E0000004024000080240000C024000100240B9
:1027F0000014024000180240001C02400020024069
:1028000000240240003C01400AB1816101E00B0458
:102810008361704701480068704700000000002095
:1028200002480068401C0149086070470000002011
:1028300010B50D48006840F400700B490860084668
:10284000006840F4806008600846006840F48070CA
:102850000860032000F0E2F8002000F007F800F024
:1028600019F8002010BD0000003C024070B504467D
:10287000074800684FF47A71B0FBF1F5284601F083
:10288000D9FA00222146501E00F089F8002070BDC0
:102890000800002010B5052000F0C0F80022114605
:1028A0006FF00B0000F07BF8002211466FF00A0079
:1028B00000F075F8002211466FF0090000F06FF883
:1028C00000221146501F00F06AF800221146101F26
:1028D00000F065F800221146901E00F060F800221A
:1028E0001146501E00F05BF810BD70B504460D4651
:1028F00016460CB9012070BD94F8390028B90020A3
:1029000084F83800204602F0B9F8242084F8390011
:102910002068C06820F400502168C860204604F098
:102920006FFE2068006920F49040216808612068EB
:10293000406920F02A00216848612068006920F081
:102940000F00216808612068006928432168086138
:102950002068C06820F400602168C8602068C068F2
:1029600030432168C8602068C06840F40050216886
:10297000C8600020E063202084F8390084F83A0021
:102980000020B8E700BF00F01F020121914042097A
:10299000920002F1E022C2F8001100BF70472DE959
:1029A000F05F80460D461646002703F05FFA0746A3
:1029B00039462A46334601F00700C0F1070ABAF14A
:1029C000040F02D94FF0040A01E0C0F1070AD14612
:1029D00000F1040ABAF1070F02D24FF0000A01E039
:1029E000A0F1030AD4464FF0010A0AFA09FAAAF143
:1029F000010A0AEA020A0AFA0CFA4FF0010B0BFA72
:102A00000CFBABF1010B0BEA030B4AEA0B0421466A
:102A1000404603F033FABDE8F09F000000BF00F02D
:102A20000702064B19684FF6FF031940044B0B438E
:102A300043EA0221014B196000BF70470CED00E032
:102A40000000FA0510B50446D4F8B40305F0EEF919
:102A500010BD70B504460D46C5EBC50304F1380141
:102A600001EB8301CA682946D4F8B40305F02EF9B6
:102A700070BD70B504460D46C5EBC50304F5EE7197
:102A800001EB8301CA682946D4F8B40305F08BF939
:102A900070BD10B50446D4F8B40305F0CAF910BDF2
:102AA00070B504460D4605F08000802808D105F079
:102AB0007F00C0EBC00104F1380000EB810605E0A7
:102AC000C5EBC50104F5EE7000EB81060020B07087
:102AD00005F07F003070C5F3C010707000BF94F82F
:102AE0008003012801D1022070BD012084F88003F9
:102AF00000BF3146206805F0EBFD00BF002084F8E0
:102B0000800300BF00BFEFE72DE9F04705460E4602
:102B100090461F464FF0000906F08000802808D13B
:102B200006F07F00C0EBC00105F1380000EB810426
:102B300007E006F07F00C0EBC00105F5EE7000EB8A
:102B4000810406F07F00207006F08000C0096070EC
:102B5000C4F80880E770607808B12078E080022F20
:102B600001D10020207100BF95F88003012802D117
:102B70000220BDE8F087012085F8800300BF2146D0
:102B8000286805F027FC00BF002085F8800300BFFF
:102B90004846EEE72DE9F04104460E4617469846B2
:102BA00006F07F00C0EBC00104F5EE7000EB81057C
:102BB000EF60C5F814800020A861687006F07F00FF
:102BC00028702069012800D12F6100BF94F880038C
:102BD000012802D10220BDE8F081012084F88003A1
:102BE00000BF06F07F0028B9227C2946206805F046
:102BF00075FC04E0227C2946206805F0F3FD00BF47
:102C0000002084F8800300BF00BFE4E770B50446ED
:102C10000D4605F08000802808D105F07F00C0EB4C
:102C2000C00104F1380000EB810605E0C5EBC501E9
:102C300004F5EE7000EB81060120B07005F07F0016
:102C40003070C5F3C010707000BF94F88003012885
:102C500001D1022070BD012084F8800300BF3146FD
:102C6000206805F079FD05F07F0028B9217C04F586
:102C70006172206805F00AFD00BF002084F880031F
:102C800000BF00BFE6E72DE9F04104460E461746B7
:102C9000984606F07F00C0EBC00104F1380000EB5D
:102CA0008105EF60C5F814800020A86101206870DC
:102CB00006F07F0028702069012800D12F6100BF35
:102CC00094F88003012802D10220BDE8F0810120A0
:102CD00084F8800300BF06F07F0028B9227C2946D3
:102CE000206805F0FBFB04E0227C2946206805F003
:102CF00079FD00BF002084F8800300BF00BFE4E737
:102D00002DE9FC5F044626684FF0000B002001907F
:102D10008146002500908046F74F206805F004FFAB
:102D200000286CD1206805F037FF08B9BDE8FC9F8A
:102D3000206805F031FF00F00200022805D120686C
:102D4000406900F0020021684861206805F024FF16
:102D500000F40020B0F5002F7ED10025206805F09A
:102D6000F1FE019075E0019800F0010000286CD0A0
:102D7000E9B2206805F005FF814609F00100E8B3DB
:102D8000012106F5306000EB4510816020690128C3
:102D90002BD1C5EBC50104F5EE7000EB8100816815
:102DA00006F5306000EB45100069C0F31200091A07
:102DB000C5EBC50204F5EE7000EB82008161C5EB46
:102DC000C50104F5EE7000EB8100C5EBC502C168DA
:102DD00004F5EE7000EB820080680144C5EBC5028B
:102DE00004F5EE7000EB8200C160E9B22046FFF707
:102DF00040FE2069012811D105B901E00EE0B2E2E0
:102E0000C5EBC50104F5EE7000EB8100406928B9FF
:102E100004F561720121206805F038FC09F0080012
:102E2000082808D1204600F007FB082106F530608D
:102E300000EB4510816009F01000102805D1102129
:102E400006F5306000EB451081606D1C019840086C
:102E500001900198002800E000E084D1206805F08E
:102E60009BFE00F48020B0F5802F7DD1206805F016
:102E700060FE0190002585E0019800F00100002827
:102E80007CD0E9B2206805F066FE814609F00100B9
:102E9000F0B30120A840009040F63400805900991A
:102EA000884340F634018851012106F5106000EB9B
:102EB000451081602069012815D1C5EBC50104F1D9
:102EC000380000EB8100C5EBC502C16804F1380091
:102ED00000EB820080680144C5EBC50204F13800B4
:102EE00000EB8200C160E9B22046FFF7B2FD206925
:102EF000012810D165B9C5EBC50104F1380000EB1C
:102F00008100406920B904F561720121206800E068
:102F100001E005F0BBFB09F00800082805D10821F5
:102F200006F5106000EB4510816009F010001028D4
:102F300005D1102106F5106000EB4510816009F005
:102F40004000402805D1402106F5106000EB4510F7
:102F5000816009F00200022805D1022106F5106007
:102F600000EB4510816001E010E007E009F080000F
:102F7000802803D12946204602F09CFF6D1C019851
:102F800040080190019800287FF476AF206805F092
:102F900003FE00F00040B0F1004F10D140F60400F5
:102FA000805920F0010140F604008151204600F0D4
:102FB0001CFA2068406900F00040216848612068E0
:102FC00005F0EAFD00F40060B0F5006F0ED140F6A8
:102FD0000800805900F0010010B1204600F036FAD8
:102FE0002068406900F4006021684861206805F0AD
:102FF000D3FD00F48050B0F5805F5CD140F6040052
:10300000805920F0010140F6040081510021206820
:1030100005F050FD4FF0000B0CE0FF2106F51060AD
:1030200000EB4B10816006F5306000EB4B108160C7
:103030000BF1010B60685845EFD84FF0FF3140F6B7
:1030400018008151001D805940F0011140F61C000C
:103050008151206B70B1D6F8840840F00B01C6F89E
:10306000841840F64400805940F00B0140F64400BB
:1030700081510EE040F61400805940F00B0140F6FB
:1030800014008151001F805940F00B014FF4016082
:103090008151D6F8000820F4FE60C6F80008217CB3
:1030A00004F56172206805F0F1FA2068406900F4C7
:1030B000805021684861206805F06EFD00F40050E2
:1030C000B0F5005F6FD1206805F0E6F92068C068B0
:1030D00020F470502168C860206805F003FD68B9CD
:1030E0000021E1604FF4007161612068C06840F424
:1030F00010502168C86084E00095BA0A0321E1609D
:103100004021616100F0A4FA07469848874209D33C
:103110009748874206D22068C06840F47050216802
:10312000C8606EE09248874209D39248874206D22F
:103130002068C06840F460502168C86061E08D4834
:10314000874209D38C48874206D22068C06840F481
:1031500050502168C86054E08748874209D38748A7
:10316000874206D22068C06840F440502168C86099
:1031700047E08248874209D38148874206D22068C7
:10318000C06840F430502168C8603AE07C4887420B
:103190000AD37C48874207D22068C06840F4205098
:1031A0002168C8602DE035E07648874209D376482B
:1031B000874206D22068C06840F410502168C86079
:1031C0001FE07148874209D37048874206D22068C1
:1031D000C06840F400502168C86012E06B48874224
:1031E00009D36B48874206D22068C06840F4E0509B
:1031F0002168C86005E02068C06840F4C0502168BC
:10320000C860204600F0D8F82068406900F40050FB
:1032100021684861206805F0BFFC00F0100010280C
:1032200045D12068806920F0100021688861D6F8B7
:10323000208008F00F00C0EBC00104F5EE7000EB39
:10324000810AC8F3434002281AD147F6F07008EA11
:10325000000030B3C8F30A123046DAF80C1005F05B
:10326000A1FCC8F30A11DAF80C000844CAF80C00F3
:10327000C8F30A11DAF818000844CAF8180010E078
:10328000C8F3434006280CD1082204F5617130468A
:1032900005F088FCC8F30A11DAF818000844CAF8E7
:1032A00018002068806940F010002168886120685B
:1032B00005F072FC00F00800082808D1204600F054
:1032C0009BF82068406900F0080021684861206888
:1032D00005F062FC00F48010B0F5801F09D1E9B25E
:1032E000204600F057F82068406900F480102168FB
:1032F0004861206805F050FC00F40010B0F5001F94
:1033000009D1E9B2204600F04EF82068406900F487
:10331000001021684861206805F03EFC00F0804004
:10332000B0F1804F08D12046FFF78CFB2068406940
:1033300000F0804021684861206805F02DFC00F015
:10334000040004280FD12068D0F8048008F004009D
:10335000042802D12046FFF79CFB2068406840EA21
:1033600008002168486000BFE0E40000C0ACD8005D
:10337000C0E1E4000024F40080730601A0491A01B2
:10338000002D310140A44C0100366E0120ABA60196
:103390000048E80170B504460D462946D4F8B40348
:1033A00004F070FD70BD70B504460D462946D4F892
:1033B000B40304F06AFD70BD70B504460125E068F1
:1033C00010B1022804D101E0002503E0012501E04D
:1033D000012500BF00BF2946D4F8B40304F0B2FDB4
:1033E000D4F8B40304F074FD70BD10B50446D4F8ED
:1033F000B40304F08FFD10BD10B50446D4F8B40337
:1034000004F08FFD10BD70B504460D4600BF94F862
:103410008003012801D1022070BD012084F88003BF
:1034200000BF2946206805F0CEFB00BF002084F8CD
:10343000800300BF00BFEFE710B5044604F56171DB
:10344000D4F8B40304F08CFD10BD000010B50446A0
:10345000D4F8B40304F0C5FD2068D0F8000E40F0A5
:1034600001002168C1F8000E206A28B103480068F5
:1034700040F006000149086010BD000010ED00E0BA
:1034800070B504460D4600266D48006800F00F0038
:10349000A84209D26A490D700846006800F00F0082
:1034A000A84201D0012070BD207800F0020002285F
:1034B00007D16448006820F0F000A1680843614922
:1034C0000860207800F00100002877D060680128AB
:1034D00007D15C4808380068C0F34040B8B9012003
:1034E000E1E76068022802D06068032807D15548E8
:1034F00008380068C0F3406048B90120D3E751485C
:1035000008380068C0F3400008B90120CBE74D48F7
:10351000006820F00300616808434A490860FFF72B
:1035200079F906466068012810D108E0FFF772F9C2
:10353000801B41F28831884201D90320B3E741481A
:10354000006800F00C000428F0D137E06068022821
:1035500010D108E0FFF75EF9801B41F28831884204
:1035600001D903209FE73748006800F00C000828C5
:10357000F0D123E06068032810D108E0FFF74AF992
:10358000801B41F28831884201D903208BE72D4806
:10359000006800F00C000C28F0D10FE008E0FFF705
:1035A00039F9801B41F28831884201D903207AE73A
:1035B0002448006800F00C000028F0D12048006882
:1035C00000F00F00A84209D91D490D700846006897
:1035D00000F00F00A84201D0012064E7207800F03D
:1035E0000400042807D11748006820F4E050E1687F
:1035F000084314490860207800F00800082808D122
:103600001048006820F46040216940EAC1000D497B
:10361000086000F04FF80B49096801F0F001F02252
:1036200092FAA2F2B2FA82F2D140074A515CC84043
:10363000064908600020FFF719F9002033E7000071
:10364000003C024008380240709B0008080000203F
:1036500001480068704700000800002000B5FFF72F
:10366000F7FF0749096801F4E0514FF4E05292FA7C
:10367000A2F2B2FA82F2D140024A515CC84000BDC7
:1036800008380240709B000800B5FFF7E1FF0749CA
:10369000096801F460414FF4604292FAA2F2B2FA72
:1036A00082F2D140024A515CC84000BD0838024055
:1036B000709B000870B50021002200230020274CD9
:1036C000246804F00C0424B1042C04D0082C41D14B
:1036D00003E0234840E023483EE0204C241F2468B8
:1036E00004F03F011D4C241F246804F4800484B1BD
:1036F0001C4CB4FBF1F5194C241F246847F6C07626
:10370000344096FAA6F6B6FA86F6F44005FB04F2C3
:103710000FE0134CB4FBF1F5104C241F246847F65E
:10372000C076344096FAA6F6B6FA86F6F44005FB63
:1037300004F20A4C241F246804F440344FF440354A
:1037400095FAA5F5B5FA85F5EC40641C6300B2FB6B
:10375000F3F001E0024800BF00BF70BD083802402E
:103760000024F400001BB70038B50446002520787B
:1037700000F00100002848D0DE48006800F00C008E
:1037800004280DD0DB48006800F00C00082811D197
:10379000D848001F006800F48000B0F5800F09D100
:1037A000D44808380068C0F3404070B3606860BB1C
:1037B000012038BD2079CF49891F0870606890B119
:1037C000FFF728F8054606E0FFF724F8401B6428B9
:1037D00001D90320EDE7C74808380068C0F340402E
:1037E0000028F1D011E0FFF715F8054606E0FFF7D5
:1037F00011F8401B642801D90320DAE7BD480838D6
:103800000068C0F340400028F1D1207800F00200A9
:10381000022869D1B748006800F00C0058B1B548DB
:10382000006800F00C00082821D1B248001F006891
:1038300000F48000D8B9AF4808380068C0F34000F1
:1038400020B1E068012801D00120B2E7A94808387A
:10385000006820F0F800F82292FAA2F2B2FA82F29E
:10386000216991400843A349083908603CE0E068B9
:1038700028B30120A0490860FEF7CCFF054606E00A
:10388000FEF7C8FF401B022801D9032091E79948A1
:1038900008380068C0F340000028F1D09548083887
:1038A000006820F0F800F82292FAA2F2B2FA82F24E
:1038B0002169914008438F490839086014E00020CD
:1038C0008D490860FEF7A6FF054606E0FEF7A2FF59
:1038D000401B022801D903206BE78648083800689E
:1038E000C0F340000028F1D1207800F0080008283B
:1038F0002CD16069A8B1012080490860FEF78AFFD9
:10390000054606E0FEF786FF401B022801D903208A
:103910004FE778486C300068C0F340000028F1D0D1
:1039200014E0002075490860FEF774FF054606E0C4
:10393000FEF770FF401B022801D9032039E76D48CC
:103940006C300068C0F340000028F1D1207800F00E
:103950000400042857D100BF00200090654838308B
:10396000006840F0805063493831086008460068BC
:1039700000F08050009000BF00BF6148006840F434
:1039800080705F490860FEF745FF054606E0FEF7D8
:1039900041FF401B022801D903200AE7584800686C
:1039A00000F480700028F2D0207A52496831087003
:1039B000A068A0B1FEF72EFF054608E0FEF72AFF3B
:1039C000401B41F28831884201D90320F1E6494881
:1039D00068300068C0F340000028EFD013E0FEF725
:1039E00019FF054608E0FEF715FF401B41F288313C
:1039F000884201D90320DCE63E4868300068C0F305
:103A000040000028EFD1A069F0B33A48006800F008
:103A10000C00082869D0A069022850D1002036493E
:103A20000866FEF7F7FE054606E0FEF7F3FE401BCC
:103A3000022801D90320BCE62E4808380068C0F3EC
:103A400040600028F1D1D4E90701084347F6C0726D
:103A500092FAA2F2B2FA82F2616A9140084301221C
:103A6000A16AC2EB51014FF4403292FAA2F2B2FACB
:103A700082F2914008434FF0706292FAA2F2B2FAD9
:103A800082F2E16A914000E031E008431949091FE0
:103A90000860012018490866FEF7BCFE054606E0EE
:103AA000FEF7B8FE401B022801D9032081E6114829
:103AB00008380068C0F340600028F1D017E000200B
:103AC0000D490866FEF7A6FE054606E0FEF7A2FED3
:103AD000401B022801D903206BE60648083800681D
:103AE000C0F340600028F1D101E0012061E6002030
:103AF0005FE600000838024000004742800E47425F
:103B00000070004010B504460CB9012010BD606A79
:103B100000B900BF0021A16294F8510028B900202B
:103B200084F85000204600F033F8022084F8510059
:103B30002068006820F0400021680860D4E9010195
:103B40000843E16808432169084361690843218B00
:103B500001F400710843E1690843216A0843A16A3E
:103B60000843216808600421A06901EA1040616AE5
:103B70000843216848602068C06920F4006021681B
:103B8000C86100206065012084F851000020BDE775
:103B900010B586B004461249206888421ED100BF85
:103BA000002000900F48006840F480100D49086024
:103BB0000846006800F48010009000BF00BF4FF47A
:103BC0006070019002200290002003900320049076
:103BD0000520059001A90448FEF708FD06B010BDB8
:103BE0000050014044380240001402402DE9FE4FCD
:103BF00004460D4616461F46DDF830804FF0000A99
:103C00000020029081464FF0010B019000BF94F814
:103C10005000012802D10220BDE8FE8F012084F867
:103C2000500000BFFEF7F6FD814694F851A0606891
:103C30000290BAF1010F0BD00298B0F5827F04D147
:103C4000A06810B9BAF1040F02D002200190D2E0AE
:103C50000DB106B117B901200190CCE094F85100E4
:103C6000012802D1052084F8510000206065A66378
:103C7000E787A7872563E786A786206460642068B6
:103C8000006800F04000402805D02068006840F03F
:103C9000400021680860E068B0F5006F43D16068BB
:103CA00010B1E08E012806D128882168C860AD1CBB
:103CB000E08E401EE0862FE0BBF1000F10D0E08EBA
:103CC00070B12068806800F00200022808D12888BE
:103CD0002168C860AD1CE08E401EE0864FF0000BEE
:103CE000E08F68B12068806800F0010040B1206872
:103CF000C0683080B61CE08F401EE0874FF0010B9B
:103D000008F1010040B1FEF785FDA0EB0900404538
:103D100002D3032001906EE0E08E0028CCD1E08F2A
:103D20000028C9D142E0606810B1E08E012806D1B8
:103D30002878216808736D1CE08E401EE0862FE015
:103D4000BBF1000F10D0E08E70B12068806800F0E9
:103D50000200022808D115F8010B21680873E08ED3
:103D6000401EE0864FF0000BE08F68B1206880684D
:103D700000F0010040B12068C06806F8010BE08F38
:103D8000401EE0874FF0010B08F1010040B1FEF743
:103D900041FDA0EB0900404502D3032001902AE039
:103DA000E08E0028CCD1E08F0028C9D14346012203
:103DB00002212046CDF8009002F08EFD10B10320C4
:103DC000019018E04A464146204602F071FD20B1BC
:103DD00001200190202060650DE0A06850B900BF6F
:103DE000002000902068C0680090206880680090E3
:103DF00000BF00BF00BF012084F8510000BF0020B9
:103E000084F8500000BF019806E7042808D14FF05D
:103E1000E021096941F004014FF0E022116107E05F
:103E20004FF0E021096921F004014FF0E022116117
:103E30007047704770B504462546681EB0F1807F14
:103E400001D301200FE0681E4FF0E02148610F21EF
:103E50004FF0FF3002F012F800204FF0E0218861AF
:103E600007200861002070BD10B5FFF7E2FF10BD0C
:103E700070477047024600BF92F83800012801D110
:103E800002207047012082F8380000BF022082F82B
:103E90003900D1E9000318438B681843CB681843F5
:103EA0000B6918434B6918438B69184313685864AE
:103EB000012082F8390000BF002082F8380000BFDE
:103EC00000BFDEE7024600BF92F83800012801D1AA
:103ED00002207047012082F8380000BF022082F8DB
:103EE00039001068406820F070001368586010684E
:103EF00040680B681843136858601068806820F0A9
:103F0000800013689860106880684B6818431368D5
:103F10009860012082F8390000BF002082F8380044
:103F200000BF00BFD5E710B504460CB9012010BD95
:103F300094F8390028B9002084F83800204600F0B1
:103F40000DF8022084F83900211D206802F058FF86
:103F5000012084F839000020E9E7000010B594B092
:103F600004462068B0F1804F5FD100BF002001906F
:103F70005F48006840F001005D490860084600683D
:103F800000F00100019000BF00BF8814109010A93C
:103F9000204600F0CEF800200E900F900EA920468B
:103FA000FFF790FF00200B90602007904FF47A708D
:103FB000089000200990002207A9204600F084FA0A
:103FC000042207A9204600F07FFA082207A920460C
:103FD00000F07AFA0C2207A9204600F075FA0F20AB
:103FE000029002200390002004900590012006908A
:103FF00002A94048FEF7FAFA002203211C20FEF72E
:10400000CEFC1C20FEF7BEFC00213B4800F098FAD5
:104010000421394800F094FA0821374800F090FA5A
:104020000C21354800F08CFA60E034492068884261
:104030001BD100BF002013902D48006840F0020003
:104040002B4908600846006800F00200139000BF8A
:1040500000BF002202211D20FEF7A1FC1D20FEF75B
:1040600091FC274800F056F840E026492068884235
:104070001BD100BF002013901D48006840F00400D1
:104080001B4908600846006800F00400139000BF58
:1040900000BF002205211E20FEF781FC1E20FEF736
:1040A00071FC194800F036F820E018492068884271
:1040B0001BD100BF002013900D48006840F008009D
:1040C0000B4908600846006800F00800139000BF24
:1040D00000BF002201213220FEF761FC3220FEF7F2
:1040E00051FC0B4800F016F800E000BF14B010BD02
:1040F0004038024000000240E00E00200004004072
:104100001C0F002000080040580F0020000C004049
:10411000940F002001460868C06840F001000A685A
:10412000D0600868006840F001000A681060002054
:1041300070472DE9F04104460D46002600BF94F873
:104140003800012802D10220BDE8F081012084F866
:10415000380000BF022084F839002068866826F005
:10416000770626F47F4620688660286850283BD072
:104170000CDC202860D004DC002853D0102865D146
:1041800055E030285DD0402860D141E0602835D02E
:1041900070280DD0B0F5805F03D0B0F5005F55D129
:1041A00015E02068806820F00700216888604EE0F4
:1041B000D5E902136A68206802F0A2FE20688668CA
:1041C00026F0770646F07706206886603FE0D5E95E
:1041D00002136A68206802F093FE2068806840F449
:1041E00080402168886032E0EA686968206802F0EF
:1041F0007DFF5021206802F08FFE28E0EA686968A0
:10420000206802F088FF6021206802F085FE1EE031
:10421000EA686968206802F069FF4021206802F0BE
:104220007BFE14E00021206802F076FE0FE01021F2
:10423000206802F071FE0AE02021206802F06CFE86
:1042400005E03021206802F067FE00E000BF00BFFB
:10425000012084F8390000BF002084F8380000BF36
:1042600000BF71E7704710B5044620680069C0F3CD
:104270004000D8B12068C068C0F34000B0B16FF012
:10428000020021680861012020762068806900F022
:10429000030018B12046FFF7E5FF05E0204600F0D7
:1042A0004DF9204600F02AFA0020207620680069A7
:1042B000C0F38000D8B12068C068C0F38000B0B1FE
:1042C0006FF0040021680861022020762068806970
:1042D00000F4407018B12046FFF7C4FF05E0204607
:1042E00000F02CF9204600F009FA00202076206822
:1042F0000069C0F3C000D8B12068C068C0F3C00036
:10430000B0B16FF0080021680861042020762068B1
:10431000C06900F0030018B12046FFF7A3FF05E0D5
:10432000204600F00BF9204600F0E8F90020207646
:1043300020680069C0F30010D8B12068C068C0F3DD
:104340000010B0B16FF010002168086108202076DD
:104350002068C06900F4407018B12046FFF782FF62
:1043600005E0204600F0EAF8204600F0C7F90020FA
:1043700020762068006900F0010058B12068C0680C
:1043800000F0010030B16FF00100216808612046A3
:1043900000F0DCF920680069C0F3C01058B1206853
:1043A000C068C0F3C01030B16FF0800021680861B0
:1043B0002046FFF75DFD20680069C0F3801058B10A
:1043C0002068C068C0F3801030B16FF040002168F1
:1043D0000861204600F0AAFA20680069C0F3401086
:1043E00058B12068C068C0F3401030B16FF02000B1
:1043F000216808612046FFF73CFD10BD10B586B06E
:104400000446142101A8FBF706FF294920688842C9
:104410003BD100BF002000902648006840F001001A
:10442000244908600846006800F00100009000BFC1
:1044300000BF00BF002000900846006840F0100058
:1044400008600846006800F01000009000BF00BF40
:104450004FF44070019002200290002003900490DD
:104460000120059001A91448FEF7C0F84FF4C040A0
:1044700001900220029000200390049001200590FA
:1044800001A90E48FEF7B2F810E00D4920688842F5
:104490000CD1202001900220029000200390049073
:1044A0000220059001A90748FEF7A0F806B010BD4C
:1044B000000001403038024000000240001002407D
:1044C000000400400004024070B504460E46154644
:1044D00000BF94F83800012801D1022070BD0120EE
:1044E00084F8380000BF022084F8390035B1042D6B
:1044F00009D0082D0CD00C2D14D10EE031462068C7
:1045000002F014FD0FE03146206802F047FD0AE09A
:104510003146206802F07EFD05E03146206802F059
:10452000B5FD00E000BF00BF012084F8390000BFE6
:10453000002084F8380000BF00BFCFE770470000BC
:1045400030B504460D4601222946206802F0CAFC17
:104550000C492068884203D00B492068884201D169
:10456000012000E0002028B12068406C40F40040A9
:10457000216848642068006840F0010021680860F4
:10458000002030BD000001400004014070B5044629
:104590000D46164600BF94F83800012801D10220CC
:1045A00070BD012084F8380000BF022084F8390073
:1045B00036B1042E1BD0082E31D00C2E5ED145E032
:1045C0002946206802F0B2FC2068806940F00800AB
:1045D000216888612068806920F004002168886172
:1045E00020688069296908432168886147E0294675
:1045F000206802F0D3FC2068806940F400602168E4
:1046000088612068806920F4806021688861206862
:104610008069296940EA0120216888612FE02946E4
:10462000206802F0F7FC2068C06940F008002168AB
:10463000C8612068C06920F004002168C861206852
:10464000C069296908432168C86118E029462068C3
:1046500002F01CFD2068C06940F400602168C86158
:104660002068C06920F480602168C8612068C06942
:10467000296940EA01202168C86100E000BF00BF4D
:10468000012084F8390000BF002084F8380000BF02
:1046900000BF85E710B504460CB9012010BD94F8A1
:1046A000390028B9002084F83800204600F00CF8C2
:1046B000022084F83900211D206802F0A1FB0120AE
:1046C00084F839000020E9E708B50A4A01689142F8
:1046D0000FD100BF002100910749096841F0010195
:1046E000054A11601146096801F00101009100BFFF
:1046F00000BF08BD00000140443802407047000080
:1047000030B504460D4601222946206802F0EAFB36
:104710000C492068884203D00B492068884201D1A7
:10472000012000E0002028B12068406C40F40040E7
:10473000216848642068006840F001002168086032
:10474000002030BD00000140000401401CB50446BB
:10475000604884427CD16048006840F480705E49C3
:1047600008605E4890ED000AF7EE000A30EE200A7D
:1047700080ED000A90ED000ADFED590AB4EEE00A80
:10478000F1EE10FA03DD9FED560A80ED000A554860
:10479000407901285DD154480078012809D1534857
:1047A00090ED000AF7EE000A30EE200A80ED000AD4
:1047B00004E09FED4F0A4D4880ED000A4D48007817
:1047C000012809D14C4890ED000AF7EE000A30EEBE
:1047D000200A80ED000A04E09FED450A464880ED7E
:1047E000000A454890ED000ADFED440AB4EEE00A05
:1047F000F1EE10FA03DD9FED420A80ED000A414818
:104800000078012809D1404890ED000AF7EE000A2F
:1048100030EE200A80ED000A08E03A4800780328CC
:1048200004D19FED330A384880ED000A364890EDF8
:10483000000ADFED360AB4EEE00AF1EE10FA0BDD05
:1048400030480078012807D102202E49087003E083
:1048500006E000202E49087022480168884738E0A9
:104860002C48844235D11C48006840F480501A49D5
:10487000086000F03BFC284890F83C0018B102F0BA
:10488000DFF802F0E7FC00212448FDF723FA02F0EC
:10489000D7F8234890ED5F0ABDEEC00A10EE100A6B
:1048A00000B20021CDE900101E4890ED5F0ABDEE78
:1048B000C00A10EE100A03B21B4890ED5F0ABDEE6D
:1048C000C00A10EE100A02B240F2FF11134802F0C3
:1048D00059F81CBD1C0F0020940000207C01002012
:1048E0000000FA430C000020800100208401002019
:1048F00000000000600100206801002000002A4440
:1049000000002044620100206401002000001643E2
:1049100061010020940F00207C060020A40A0020E2
:10492000FC0100207C030020FC040020704770473D
:104930002DE9F0470446206805682068C6682068AD
:1049400047694FF00008C14605F00F08B8F1000FA5
:104950000AD105F0200038B106F0200020B1204631
:1049600002F000FEBDE8F087B8F1000F6DD007F04F
:10497000010018B906F49070002866D005F0010017
:1049800030B106F4807018B1E06B40F00100E063D4
:1049900005F0040030B107F0010018B1E06B40F001
:1049A0000200E06305F0020030B107F0010018B129
:1049B000E06B40F00400E06305F0080030B107F060
:1049C000010018B1E06B40F00800E063E06B68B3F1
:1049D00005F0200028B106F0200010B1204602F0BA
:1049E000C1FD20684069C0F38019E06B00F0080049
:1049F00010B9B9F1000F22D0204602F089FD2068DD
:104A0000406900F04000B0B12068406920F04000EB
:104A100021684861606B50B11748616B0865606B35
:104A2000FDF791FB10B1606B016D88470CE02046EB
:104A3000FFF77DFF08E02046FFF779FF04E02046FE
:104A4000FFF775FF0020E0638CE705F0800030B1D0
:104A500006F0800018B1204602F086FF82E705F0DC
:104A6000400030B106F0400018B1204602F060FD71
:104A700078E700BF76E700005974000810B586B0EB
:104A800004466F49206888421ED100BF0020009074
:104A90006C48006840F010006A49086008460068E9
:104AA00000F01000009000BF00BFC0200190022065
:104AB000029000200390032004900720059001A994
:104AC0006148FDF793FDB8E060492068884220D135
:104AD00000BF002000905B48001F006840F40030D9
:104AE0005849091F08600846006800F4003000902B
:104AF00000BF00BF602001900220029000200390C0
:104B0000032004900720059001A95148FDF76EFD90
:104B100093E050492068884221D100BF00200090D6
:104B20004848001F006840F480204649091F08607B
:104B30000846006800F48020009000BF00BF4FF4DA
:104B40004070019002200290002003900320049006
:104B50000720059001A93E48FDF748FD6DE03E495C
:104B6000206888421FD100BF0020009035480068AF
:104B700040F02000334908600846006800F020003B
:104B8000009000BF00BF4FF48440019002200290CB
:104B900000200390032004900820059001A92F48CD
:104BA000FDF724FD49E02E492068884221D100BF4D
:104BB000002000902348001F006840F080402149F9
:104BC000091F08600846006800F08040009000BFA0
:104BD00000BF4FF4C07001900220029000200390AB
:104BE000032004900820059001A91E48FDF7FEFC53
:104BF00023E01D49206888421FD100BF002000909B
:104C00001048001F006840F000400E49091F08606E
:104C10000846006800F00040009000BF00BF03207D
:104C200001900220029000200390032004900820AD
:104C3000059001A90B48FDF7D9FC06B010BD000096
:104C4000001001404438024000040240004400408B
:104C5000000C0240004800400014014000180240CF
:104C60000078004000100240007C0040F7B5044688
:104C7000154694F83A00202843D1019800B10DB9A7
:104C80000120FEBD00BF94F83800012801D10220A8
:104C9000F7E7012084F8380000BF0198A062A585DD
:104CA0000020E063222084F83A001748616BC86353
:104CB0001648616B08641648616BC8640020616B1C
:104CC000086501AE32682368191D2B46606BFDF73D
:104CD00017FC2068C06840F480702168C8602068B4
:104CE000406940F00100216848612068406940F057
:104CF00040002168486100BF002084F8380000BFF0
:104D0000BFE70220BDE70000BD740008037500087E
:104D10006D74000810B50446274884420CD1002069
:104D2000264908602649274801F0D3FC242225495A
:104D30002148FFF79BFF3EE02348844204D13E22F6
:104D40002249FFF793FF36E0214884420CD100202E
:104D5000204908602049214802F0FEF912221F492B
:104D60001B48FFF783FF26E01D48844209D13E21FE
:104D70001C4800F047F83E221A491948FFF776FF11
:104D800019E01948844209D11349184802F0E4F99E
:104D90001C2216491448FFF769FF0CE014488442AE
:104DA00009D1144A1449154804F0A4FC3E221349C1
:104DB0000F48FFF75BFF10BD0C100020C001002062
:104DC000C80900208C1100204C100020B0110020D8
:104DD0008C100020D4010020000A0020EE110020D9
:104DE000CC100020001200200C1100203E120020E8
:104DF0004C1100200C0000200C0A00205A12002048
:104E00007047704770B502460B460020022101240E
:104E10000025AE4E86F8245002B970BD00BF0020B8
:104E20004CE1155C552D7CD1014609E0A74D95F864
:104E30002450565C3544A54E86F824504D1CE9B2EA
:104E400000F10A05A942F1DBA04D95F8246000F1BC
:104E50000A05555DAE4265D1451C555D512D7DD08D
:104E6000522D7CD0532D7BD1851C555DC61C965D83
:104E7000360236B2354300EE105AB8EEC00A9FED46
:104E8000941AC0EE010A9FED931A9FED920A10EE5C
:104E9000810A8E4D85ED000A95ED000ADFED8E0A40
:104EA000B4EEE00AF1EE10FA0AD895ED000AB1EE80
:104EB000400ADFED8A0A30EE600A85ED000A06E05E
:104EC000824D95ED000AB1EE400A85ED000A051D00
:104ED000555D461D965D360236B2354300EE105ADA
:104EE000B8EEC00A9FED7A1AC0EE010A9FED791A5A
:104EF0009FED780A10EE810A744D85ED010A851D3B
:104F0000555DC61D965D360236B2354300EE105A29
:104F1000B8EEC00A9FED6E1AC0EE010A9FED6D1A41
:104F200001E0C9E0C3E09FED6B0A10EE810AFFEEDD
:104F3000000A20EE200A654D85ED020A95ED020A71
:104F4000B5EEC00AF1EE10FA0BDD95ED020ADFEDC9
:104F5000610A30EE600A85ED020A12E056E011E0C7
:104F6000A3E05A4D95ED020AB5EEC00AF1EE10FA33
:104F700007D295ED020ADFED570A30EE200A85EDE3
:104F8000020A93E0851C565DC51C555D46EA052561
:104F90002DB26D4200EE105AF8EEC00A9FED4C1A89
:104FA00080EE810ADFED4E0A20EE200A474D85EDA6
:104FB000030A051D565D451D555D46EA05252DB2C2
:104FC00000EE105AB8EEC00A9FED411AC0EE010A79
:104FD0009FED430A20EE800A3C4D85ED040A851DB5
:104FE000565DC51D555D46EA05252DB200EE105AE9
:104FF000F8EEC00A9FED361A80EE810ADFED380A1E
:1050000020EE200A314D85ED050A4FE0851C565DE6
:10501000C51C555D46EA05252DB200EE105AF8EE86
:10502000C00A9FED2B1A80EE810AF3EE000A20EEF3
:10503000200ADFED2C0A20EE200A244D85ED060A19
:10504000051D565D451D555D46EA05252DB200EE50
:10505000105AF8EEC00A9FED1E1A80EE810AF3EE98
:10506000000A20EE200ADFED1F0A20EE200A174D6D
:1050700085ED070A851D565DC51D555D46EA05256A
:105080002DB200EE105AF8EEC00A9FED111A80EE14
:10509000810AF3EE000A20EE200ADFED120A20EE6C
:1050A000200A0A4D85ED080A00E000BF00BF002578
:1050B000064E86F824500024451CE8B2A3F10A05E8
:1050C00085423FF7AEAE00BFA7E60000A009002072
:1050D0000000004700003443000034C30000B44324
:1050E0000000FA44CDCC1C4100BFFEE700B52DED19
:1050F0000E8B85B00E2201A93B2000F065FA9DF8C9
:1051000005009DF8041040EA012000B200EE100AEC
:10511000B8EEC00ADFEDA70A80EE201AA64880ED9F
:10512000001A9DF807009DF8061040EA012000B221
:1051300000EE100AB8EEC00ADFED9E0A80EE201ADB
:105140009D4880ED011A9DF809009DF8081040EA7D
:10515000012000B200EE100AB8EEC00ADFED950A99
:1051600080EE201A944880ED021A9DF80B009DF8FD
:105170000A1040EA012000EE100AB8EEC00ADFED86
:105180008F0A80EE201A8C4880ED031A90ED101AD9
:10519000F0EE410A90ED031AB0EE410A443000F0FF
:1051A000DBFEB5EEC00AF1EE10FA09DD824890EDA3
:1051B000310ABCEEC00A10EE100A8149086002E014
:1051C00000207F4908609DF80D009DF80C1040EA12
:1051D000012000B200EE100AB8EEC00A764880ED59
:1051E000070A9DF80F009DF80E1040EA012000B25A
:1051F00000EE100AB8EEC00A6F4880ED080A9DF86C
:1052000011009DF8101040EA012000B200EE100AD3
:10521000B8EEC00A684880ED090A0120664981F8A5
:105220003C00084690ED010A20EE000AD0ED000A8D
:1052300090ED001A00EE810AD0ED020A90ED021AFC
:1052400000EE810A10EE101A0846FBF784F941ECD3
:105250001E0BB0EE4E0AF0EE6E0A03F097FFB0EEB2
:1052600040CAF0EE60CA544890ED010A10EE101AE0
:105270000846FBF770F941EC1D0B53EC1C2BFBF7B8
:10528000EEF841EC1B0BB0EE4B0AF0EE6B0A03F0AC
:10529000C3FDB0EE40AAF0EE60AA9FED4A0B53ECBE
:1052A000102B51EC1A0BFBF768F841EC190B9FED32
:1052B000470B53EC102BFBF7D2F841EC180BFBF724
:1052C0008DF93D494863084690ED010A20EE000A39
:1052D000D0ED000A90ED001A00EE810AD0ED020A2E
:1052E00090ED021A00EE810A10EE101A0846FBF744
:1052F00032F941EC1E0BB0EE4E0AF0EE6E0A03F0EE
:1053000045FFB0EE40CAF0EE60CA2B4890ED000AAF
:1053100010EE101A0846FBF71EF941EC1D0B53EC7A
:105320001C2BFBF79CF841EC1B0BB0EE4B0AF0EE8C
:105330006B0A03F071FDB0EE40AAF0EE60AA9FED9B
:10534000210B53EC102B51EC1A0BFBF716F841EC28
:10535000190B9FED1E0B53EC102BFBF780F841EC63
:10536000180BFBF73BF914490863FBF7AFFA124837
:1053700090ED070A1748D0ED040A30EE600A0E4897
:1053800080ED040A90ED080A1248D0ED050A30EECF
:10539000600A094880ED050A90ED090A0D48D0ED34
:1053A000060A30EE600A044880ED060A05B0BDEC3E
:1053B0000E8B00BD000080457C060020000080436D
:1053C00038040040000000000080664000000040FB
:1053D000FB2109405407002010B504461F4820490E
:1053E00008600846016888471C481E49086008464E
:1053F0000168884719481C490860084601688847C1
:105400001A481B49086008460168884719481A4924
:105410000860084601688847184819490861084625
:105420000169884715481749086108460169884796
:1054300012481549086108460169884713482060E9
:10544000032020710321617100216620015568202D
:105450000155672001556920015510BD2D5E0008DA
:105460007C030020FC040020FC010020E56500080E
:10547000C809002045710008000A0020E95D000805
:10548000C0010020D4010020E8010020B51300086D
:1054900010B586B0002414222B4901A8FAF7A2FE09
:1054A00001212A4881649FED2A0A80ED130A9FEDAD
:1054B000290A80ED140A9FED280A80ED150A9FED58
:1054C000270A80ED170A9FED260A80ED180A9FED46
:1054D000250A80ED190A9FED230A80ED1E0A9FED33
:1054E000210A80ED1A0A9FED200A80ED1B0AB2EE18
:1054F000040A80ED1C0A9FED1B0A80ED1D0A9FED3A
:10550000190A80ED160A9FED190A80ED100A642031
:10551000FDF745F8752000F02DF81549087000BF1B
:105520000DE001AA02EB4402517801AA12F814001E
:1055300000F07CF80120FDF732F8601CC4B20A2CA0
:10554000EFDB002006B010BD889B00087C06002021
:1055500000C0794400002F4400002FC40000C8435D
:10556000CDCC4C3D0000000000004842000020422D
:105570009401002038B50446002240210E48FDF772
:1055800043F944F080000D490870372001230C4A8C
:1055900000900C48FEF72AFB37200123084A0749F0
:1055A00000900848FEF722FB012240210248FDF747
:1055B0002BF90348007838BD001402409F010020F9
:1055C0009E01002068160020F8B506460C461546D8
:1055D000002240211048FDF717F946F080000F49DE
:1055E0000870084600780E490870372001230D4ADC
:1055F0000A4900900C48FEF7F9FA37202B4622465C
:10560000074900900848FEF7F1FA012240210248BC
:10561000FDF7FAF80020F8BD00140240A1010020B7
:10562000A2010020A00100206816002038B5054620
:105630000C46002240210F48FDF7E6F805F07F00F8
:105640000D490870372001230C4A00900C48FEF7E2
:10565000CDFA0948047037200123084A0649009012
:105660000748FEF7C3FA012240210248FDF7CCF8B3
:10567000002038BD001402409D0100209C01002044
:105680006816002010B50E480E49086003204860D7
:1056900000210C488160C1604FF4002101614FF48A
:1056A0004011416100218161C161016241628162F9
:1056B0000121C162FCF794F908B1FBF749FC10BD68
:1056C00000640040A40A002010B50E480E4908608E
:1056D0000320486000210C488160C1604FF4002124
:1056E00001614FF44011416100218161C16101629A
:1056F000416281620121C162FCF772F908B1FBF7D6
:1057000027FC10BD00680040E40A002000B587B007
:1057100000BF002001907E48006840F010007C49E6
:1057200008600846006800F01000019000BF00BF4C
:1057300000BF002001900846006840F0400008606B
:105740000846006800F04000019000BF00BF00BFA5
:10575000002001900846006840F0040008600846F8
:10576000006800F00400019000BF00BF00BF0020EF
:1057700001900846006840F0020008600846006892
:1057800000F00200019000BF00BF00BF00200190A8
:105790000846006840F0010008600846006800F014
:1057A0000100019000BF00BF00BF0020019008462B
:1057B000006840F0080008600846006800F0080033
:1057C000019000BF00BF00BF0020019008460068A4
:1057D00040F4807008600846006800F48070019012
:1057E00000BF00BF00BF002001900846006840F0E5
:1057F000800008600846006800F08000019000BF4B
:1058000000BF00BF002001900846006840F0200063
:1058100008600846006800F02000019000BF00BF4B
:105820000C2002900120039000200490032005909A
:1058300002A93848FCF7DAFE0220029036480390AD
:105840000020049002A93348FCF7D0FE4FF400502A
:1058500002900120039000200490059002A92F4897
:10586000FCF7C4FE44F240000290012003900020A7
:105870000490059002A92A48FCF7B8FE4FF4806016
:10588000029000200390049002A92648FCF7AEFE87
:105890004FF40060029001200390002004900590D6
:1058A00002A91C48FCF7A2FE0420029001200390EC
:1058B00000200490059002A91B48FCF797FE1020D9
:1058C00002900120039000200490059002A9164840
:1058D000FCF78CFE012002901448039002200490F3
:1058E000059002A91248FCF781FE02220021062041
:1058F000FDF755F80620FDF745F8022200210820A3
:10590000FDF74DF80820FDF73DF807B000BD000099
:105910003038024000100240000011100018024010
:1059200000140240000C0240001C02400000211044
:105930000020024010B50E480E4908604FF48270F6
:10594000486000210B488160C160016141614FF4F2
:10595000007181613021C161002101624162816277
:105960000A21C162FEF7CEF808B1FBF7F1FA10BDCB
:10597000005001406816002000B591B000200F9043
:1059800010901C2108A8FAF746FC1C2101A8FAF780
:1059900042FC2F482F4908605320486000212D48C1
:1059A000816044F62061C160002101614161FEF720
:1059B00071FE08B1FBF7CCFA00200F9010900FA9F0
:1059C0002448FEF77FFA08B1FBF7C2FA602008907E
:1059D0004FF47A70099000200A900B900C900D9073
:1059E0000E90002208A91B48FEF7D0FD08B1FBF776
:1059F000AFFA042208A91748FEF7C8FD08B1FBF763
:105A0000A7FA082208A91348FEF7C0FD08B1FBF762
:105A10009FFA0C2208A90F48FEF7B8FD08B1FBF762
:105A200097FA0020019002900390049005904FF4A3
:105A3000005006900020079001A90648FEF71AFAC8
:105A400008B1FBF785FA0348FEF76DFA11B000BD07
:105A500000000140A40E002010B50C480C4908605D
:105A60000C48486000210A488160C1604FF48061A1
:105A700001610421416100218161C161002211465F
:105A8000FCF733FF08B1FBF763FA10BD00100140CB
:105A90000C100020A086010010B50C480C490860CD
:105AA0004FF416504860002109488160C1600161CF
:105AB0000C21416100218161C16100221146FCF786
:105AC00014FF08B1FBF744FA10BD00000044004089
:105AD0004C10002010B50C480C4908604FF4E13020
